:0400000014EF00F009
:100008002182FACF01F0FBCF02F0F2BAF2A402D0BB
:10001800DDEC00F002C0FBFF01C0FAFF21921100E5
:1000280001EF01F0000E056E000E046E8A948A90AE
:1000380000F000F08A8000F000F08A90000E076E51
:10004800000E066E81A203D0036A032A01D0036A58
:1000580004500310046E0550056E00F000F08A8409
:1000680000F000F08A9407BE06D0075007E1070E9B
:10007800065CD8B003D0D89004360536064A072A5D
:1000880007BEE0D7075004E1080E065CD8A0DAD70F
:1000980004C020F0120019C004F0899200F000F0AA
:1000A800899000F000F08994000E066E000E056E2F
:1000B80000F000F004C003F0010E03160346895057
:1000C8000318FD0B0318896E898400F000F08994E9
:1000D800070E05180610D8A404D0898000F000F097
:1000E8008990D8900432054A062A06BEE1D7065000
:1000F80005E1080E055CD8B01200DAD71200000E30
:100108000C6E000E0D6E000E0E6E000E0F6E47EC9C
:1001180001F0106E105041EC01F01E501D1005E169
:10012800F40E1B5C010E1C58D8B04FEC00F01E50AA
:100138001D1006E1F40E1B5C010E1C58D8A012001D
:1001480016EC00F01200080EB86E900EAB6E240E7E
:10015800AC6E190EAF6E000EB06E000E036E000E80
:10016800046E37EC01F0000E036E000E046E32ECE4
:1001780001F0000E036E000E046E3CEC01F0000E60
:100188001F6E1200000E896E000E8A6E000E8B6EB6
:10019800F00E926EFA0E936EBF0E946E3C0E0F0127
:1001A8003A6F380E396F200E386F000E616EF18E7F
:1001B8001200F2941AC0D6FF17501810D8B41200C3
:1001C80001D812000500FA6E1750FD6E1850FE6E29
:1001D800F850FF6EFA501200000ED76E830ED66EDE
:1001E800830E1A6EF294F28A400E036E020E046EAB
:1001F8002DEC01F0D00ED56E1200206A1F6A1E6A1F
:100208001D6A1C6A1B6A21902192000EF86E00017B
:1002180027EF01F045EC01F0C6EC00F019EC01F015
:10022800F0EC00F0A7EC00F01200300ED36E040ED4
:10023800D26E000E9B6E1200010E1B26000E1C22B1
:100248001D221E2212000EEC01F0F28E83EC00F04B
:10025800FDD703C017F004C018F0120003C013F054
:1002680004C014F0120003C015F004C016F0120008
:1002780003C011F004C012F01200036E03C019F09D
:0A0288001200D09E12002050120058
:020000040020DA
:08000000FFFFFFFFFFFFFFFF00
:020000040030CA
:0E000000FF281F3CFFBF85FF03C003E0034045
:00000001FF
