:0400000014EF00F009
:100008005C82FACF39F0FBCF3AF0F2BAF2A402D010
:100018004FEC02F03AC0FBFF39C0FAFF5C921100C6
:100028003CEF02F0000E4C6E000E4D6E000E4E6E50
:10003800000E4F6E000E506E000E516E000E526E86
:10004800000E536E08EC03F0546E000E566E000E50
:10005800556E56BE06D056502BE1080E555CD8B0EA
:1000680027D05550440FD96EDA6A55C040F0070EB4
:10007800401655C041F0070E4116010E426E000EA3
:10008800436E412A03D0D89042364336412EFBD7DF
:1000980054504216000E4316402A03D043344332CC
:1000A8004232402EFBD74250DF6E554A562AD1D7EE
:1000B80044C031F045C032F046C033F02650FFEC62
:1000C80002F04C50155C406E4D501658416E4E5023
:1000D8001758426E4F501858436E4350421005E16E
:1000E800F40E405C010E4158D8B054EC01F0505069
:1000F800155C406E51501658416E52501758426E5A
:1001080053501858436E4350421006E1F40E405CB9
:10011800010E4158D8A012001BEC01F0120098C043
:1001280001F099C002F09AC049F09BC048F04850CD
:10013800310F456E9CC049F09DC048F04850482496
:10014800036E48C043F049C044F0030E476E000EEA
:10015800466E19D04650020D4550F324D96EDA6A1E
:10016800DECF48F0DDCF49F04750010FD96EDA6A8B
:1001780049C0DFFF472A4750010FD96EDA6A48C0E5
:10018800DFFF472A462A4650416E426A4350415C87
:1001980044504258D8A0DED70350030F85EC02F034
:1001A800980E3B6E000E3D6E000E3C6E000E3F6ECC
:1001B800200E3E6E62EC02F01200E7EC02F000093D
:1001C800D8A412D003EC03F04A6E2550980FD96ECC
:1001D800DA6A4AC0DFFF252A15C011F016C012F0EE
:1001E80017C013F018C014F01150155C4A6E125065
:1001F80016584B6E135017584C6E145018584D6EB5
:100208004D504C104B1004E1040E4A5CD8A012006B
:1002180028EC02F0BAEC01F015C011F016C012F08B
:1002280017C013F018C014F0000E256E1200000E4F
:100238003D6E000E3C6E8A948A9000F000F08A8031
:1002480000F000F08A90000E3F6E000E3E6E81A214
:1002580003D03B6A3B2A01D03B6A3C503B103C6EC2
:100268003D503D6E00F000F08A8400F000F08A9462
:100278003FBE06D03F5007E1070E3E5CD8B003D022
:10028800D8903C363D363E4A3F2A3FBEE0D73F50E5
:1002980004E1080E3E5CD8A0DAD73CC024F0120076
:1002A80023C03CF0899200F000F0899000F000F043
:1002B8008994000E3E6E000E3D6E00F000F03CC0CA
:1002C8003BF0010E3B163B4689503B18FD0B3B1893
:1002D800896E898400F000F08994070E3D183E105D
:1002E800D8A404D0898000F000F08990D8903C32DE
:1002F8003D4A3E2A3EBEE1D73E5005E1080E3D5C30
:10030800D8B01200DAD712009AC045F09BC044F06A
:1003180044C041F045C042F09CC045F09DC044F047
:100328004150310FD96EDA6A44C0DFFF000E436EC8
:100338004350980FD96EDA6A4350010FE16EE26AB2
:10034800DFCFE7FF432A050E4364F2D7060E85EC9C
:1003580002F0980E3B6E000E3D6E000E3C6E000ED5
:100368003F6E200E3E6E62EC02F01200000E3F6EF1
:10037800000E3E6E3EC03BF0070E3B163E50310F5E
:10038800D96EDA6ADF503C6E3B2A02D0D8903C36F0
:100398003B2EFCD73C503D123E4A3F2A3FBEEAD78F
:1003A8003F5004E1080E3E5CD8A0E4D73DC026F0DB
:1003B80012009D9A9D98080EB86E900EAB6E240E92
:1003C800AC6E190EAF6E000EB06E000E2B6E000EE6
:1003D800306E000E2F6E080E5A6E000E2E6E000E36
:1003E8002D6E000E2C6E9D8A1200010E596E000EA5
:1003F8003C6E000E3B6E3B50310FD96EDA6A000E30
:10040800DF6E3B4A3C2A3CBEF6D73C5004E1080E5E
:100418003B5CD8A0F0D726681200000E896E000E4B
:100428008A6E000E8B6EF00E926EFA0E936EBF0EF1
:10043800946E3C0E0F013A6F380E396F200E386FEC
:10044800000E616EF18E1200595000019819D8A45F
:10045800120006D093EC00F0120088EC01F01200B4
:100468009951030AD8B4F6D7050AD8A41200F5D7CB
:1004780000EE60F0580EEE6AE806FDE100EE01F0CD
:10048800380EEE6AE806FDE15C905C92000EF86EAC
:10049800000196EF02F0F2945BC0D6FF5750581057
:1004A800D8B4120001D812000500FA6E5750FD6E3C
:1004B8005850FE6EF850FF6EFA5012003BC040F0E4
:1004C80006D04050D96EDA6A3CC0DFFF402A3E06AB
:1004D800D8A03F063E28F5E13F28D8B41200F1D74E
:1004E800000ED76E830ED66E830E5B6EF294F28A80
:1004F800DC0E3B6E050E3C6EF5EC02F0D00ED56EB0
:1005080012003D6E000E3E6E08D03E50010FD96EAF
:10051800DA6ADF50FAEC02F03E2A3D503E5CD8B071
:100528001200F3D7A3EC02F0F28EF28CF9EC01F092
:10053800E1EC00F0CFEC02F016EC00F0F9D706EC95
:1005480003F011EC02F0E0EC02F074EC02F0DDECE8
:1005580001F012003B6E2950600FD96EDA6A3BC079
:10056800DFFF292A0F0E291612002850700FD96EA6
:10057800DA6ADF503B6E282A0F0E28163B5012000D
:100588002750600FD96EDA6ADF503B6E272A0F0EAC
:1005980027163B501200D8EC02F00009D8A412002C
:1005A800C4EC02F0AD6E120027502918D8A402D06E
:1005B800010E1200000E1200300ED36E040ED26E21
:1005C800000E9B6E12002850D8A402D0010E120013
:1005D800000E1200010E1526000E162217221822F0
:1005E80012003BC057F03CC058F012003C6E3C5023
:1005F800AEEC02F012003B6E3BC023F01200B9ECE7
:0C06080002F01200D09E120024501200DC
:020000040020DA
:08000000FFFFFFFFFFFFFFFF00
:020000040030CA
:0E000000FF281F3CFFBF85FF03C003E0034045
:00000001FF
