:0400000028EF00F0F5
:100008005682FACF31F0FBCF32F0D9CF33F0DACFC6
:1000180034F0F2BAF2A403D09BEC02F00BD0F2ACAD
:1000280009D09DA802D09EB805D09DBA9EAA02D03C
:10003800E2EC02F034C0DAFF33C0D9FF32C0FBFF74
:1000480031C0FAFF5692110088EF02F0000E466E9A
:10005800000E476E000E486E000E496E000E4A6E86
:10006800000E4B6E000E4C6E000E4D6E7CEC03F0D5
:100078004E6E000E506E000E4F6E50BE06D05050A1
:100088002BE1080E4F5CD8B027D04F503E0FD96EE9
:10009800DA6A4FC03AF0070E3A164FC03BF0070E27
:1000A8003B16010E3C6E000E3D6E3B2A03D0D890E5
:1000B8003C363D363B2EFBD74E503C16000E3D16C7
:1000C8003A2A03D03D343D323C323A2EFBD73C50DD
:1000D800DF6E4F4A502AD1D73E04D8A409D0000E6B
:1000E800146E000E136E000E166E010E156E0ED0F5
:1000F80014BE0AD0145004E10B0E135CD8A004D02F
:10010800000E166E000E156E134A142A15041610EA
:10011800D8A405D0000E0001C16F010E04D0000E56
:100128000001C16F000EC06F245073EC03F0235020
:100138006FEC03F046500D5C3A6E47500E583B6E1C
:1001480048500F583C6E495010583D6E3D503C1079
:1001580005E1F40E3A5C010E3B58D8B091EC01F081
:100168004A500D5C3A6E4B500E583B6E4C500F582F
:100178003C6E4D5010583D6E3D503C1006E1F40E5B
:100188003A5C010E3B58D8A0120058EC01F08A7E68
:100198001200A0C060F0A1C061F0A2C043F0A3C0EB
:1001A80042F04250020DF350C00F3F6EA4C043F01E
:1001B800A5C042F0425042240001626F42C03DF0A7
:1001C80043C03EF0030E416E000E406E19D0405001
:1001D800020D3F50F324D96EDA6ADECF42F0DDCF4C
:1001E80043F04150600FD96EDA6A43C0DFFF412AFD
:1001F8004150600FD96EDA6A42C0DFFF412A402AB7
:1002080040503B6E3C6A3D503B5C3E503C58D8A049
:10021800DED76251030FD1EC02F0A00E356E000E4E
:10022800376E000E366E000E396E200E386EAEEC4C
:1002380002F0120047EC03F00009D8A412D077ECC2
:1002480003F0446E2250A00FD96EDA6A44C0DFFF73
:10025800222A0DC009F00EC00AF00FC00BF010C022
:100268000CF009500D5C446E0A500E58456E0B5048
:100278000F58466E0C501058476E475046104510A0
:1002880004E1040E445CD8A0120074EC02F0FEEC09
:1002980001F00DC009F00EC00AF00FC00BF010C03D
:1002A8000CF0000E226E1200000E376E000E366E35
:1002B800899A899600F000F0898600F000F0899606
:1002C800000E396E000E386E80A803D0356A352AC4
:1002D80001D0356A36503510366E3750376E00F01B
:1002E80000F0898A00F000F0899A39BE06D03950AA
:1002F80007E1070E385CD8B003D0D89036363736C9
:10030800384A392A39BEE0D7395004E1080E385C3A
:10031800D8A0DAD736C021F0120011C036F012C0CA
:1003280037F0899200F000F0899000F000F089948D
:10033800000E396E000E386E00F000F036C035F051
:10034800010E3516354689503518FD0B3518896E5E
:10035800898400F000F089940F0E38183910D8A459
:1003680004D0898000F000F08990D8903732363276
:10037800384A392A39BEE0D7395005E1100E385CC1
:10038800D8B01200D9D71200A2C03FF0A3C03EF0E7
:100398003EC03BF03FC03CF0A4C03FF0A5C03EF0DB
:1003A8003B50020DF350C00FD96EDA6A3EC0DEFF33
:1003B8003FC0DDFF000E3D6E3D50A00FD96EDA6ADA
:1003C8003D50600FE16EE26ADFCFE7FF3D2A050E80
:1003D8003D64F2D7060ED1EC02F0A00E356E000E89
:1003E800376E000E366E000E396E200E386EAEEC8B
:1003F80002F01200000E396E000E386E38C035F06B
:10040800070E35163850020DF350C00FD96EDA6A50
:10041800DF50366E352A02D0D8903636352EFCD7C6
:1004280036503712384A392A39BEE8D7395004E1EC
:10043800080E385CD8A0E2D7246837C023F0120031
:10044800030E536E000E366E000E356E3550020DDB
:10045800F350C00FD96EDA6A000EDE6E000EDD6E44
:10046800354A362A36BEF2D7365004E1080E355CD6
:10047800D8A0ECD72468236812009D9A9D98080E8E
:10048800B86E900EAB6E240EAC6E190EAF6E000EE9
:10049800B06E000E296E000E2E6E000E2D6E080E28
:1004A800556E000E2C6E000E2B6E000E2A6E9D8A65
:1004B8001200000E896E000E8A6E000E8B6ED00E32
:1004C800926E7F0E936EBF0E946E3C0E0F013A6FC4
:1004D8003F0E396F000E386F000E616EF18E1200FC
:1004E80053500001A019D8A4120006D0CDEC00F09A
:1004F8001200C8EC01F01200A151030AD8B4F6D7D3
:10050800050AD8A41200F5D700EE60F0700EEE6A66
:10051800E806FDE100EE01F02E0EEE6AE806FDE1C8
:1005280056905692000EF86E0001F1EF02F0F29428
:1005380054C0D6FF51505210D8B4120001D812003E
:100548000500FA6E5150FD6E5250FE6EF850FF6E67
:10055800FA50120035C03AF006D03A50D96EDA6A2D
:1005680036C0DFFF3A2A3806D8A039063828F5E120
:100578003928D8B41200F1D7000ED76E830ED66E84
:10058800830E546EF294F28ABC0E356E060E366EE9
:1005980065EC03F0D00ED56E1200376E000E386E83
:1005A80008D03850600FD96EDA6ADF506AEC03F071
:1005B800382A3750385CD8B01200F3D7ABA202D033
:1005C800AB98AB88AECF30F03EEC03F00009D8A46E
:1005D800120030502AEC03F01200FEEC02F0F28E0A
:1005E800F28C24EC02F01EEC01F035EC03F02AEC5E
:1005F80000F0F9D77AEC03F05DEC02F057EC03F069
:10060800C0EC02F041EC02F01200356E2750700F7A
:10061800D96EDA6A35C0DFFF272A0F0E27161200B7
:100628002650800FD96EDA6ADF50356E262A0F0EF3
:100638002616355012002550700FD96EDA6ADF5031
:10064800356E252A0F0E2516355012002F6E2850AC
:10065800800FD96EDA6A2FC0DFFF282A0F0E2816FE
:1006680012004FEC03F00009D8A412001FEC03F0AD
:10067800AD6E120028280F0B2618D8A402D0010E40
:100688001200000E120026502818D8A402D0010E1D
:100698001200000E120025502718D8A402D0010E0F
:1006A8001200000E1200300ED36E040ED26E000E31
:1006B8009B6E1200010E0D26000E0E220F22102234
:1006C800120035C051F036C052F01200366E365066
:1006D80009EC03F01200356E35C012F01200356EC9
:1006E80035C011F0120014EC03F01200D09E120075
:0406F800215012007B
:020000040020DA
:08000000FFFFFFFFFFFFFFFF00
:020000040030CA
:0E000000FF281F3CFFBF85FF03C003E0034045
:00000001FF
